{
  "_format": "hh-sol-artifact-1",
  "contractName": "artNFT",
  "sourceName": "contracts/artnft.sol",
  "abi": [
    {
      "inputs": [
        {
          "internalType": "address",
          "name": "_marketplaceContract",
          "type": "address"
        }
      ],
      "stateMutability": "nonpayable",
      "type": "constructor"
    },
    {
      "anonymous": false,
      "inputs": [
        {
          "indexed": true,
          "internalType": "address",
          "name": "owner",
          "type": "address"
        },
        {
          "indexed": true,
          "internalType": "address",
          "name": "approved",
          "type": "address"
        },
        {
          "indexed": true,
          "internalType": "uint256",
          "name": "tokenId",
          "type": "uint256"
        }
      ],
      "name": "Approval",
      "type": "event"
    },
    {
      "anonymous": false,
      "inputs": [
        {
          "indexed": true,
          "internalType": "address",
          "name": "owner",
          "type": "address"
        },
        {
          "indexed": true,
          "internalType": "address",
          "name": "operator",
          "type": "address"
        },
        {
          "indexed": false,
          "internalType": "bool",
          "name": "approved",
          "type": "bool"
        }
      ],
      "name": "ApprovalForAll",
      "type": "event"
    },
    {
      "anonymous": false,
      "inputs": [
        {
          "indexed": false,
          "internalType": "uint256",
          "name": "_fromTokenId",
          "type": "uint256"
        },
        {
          "indexed": false,
          "internalType": "uint256",
          "name": "_toTokenId",
          "type": "uint256"
        }
      ],
      "name": "BatchMetadataUpdate",
      "type": "event"
    },
    {
      "anonymous": false,
      "inputs": [
        {
          "indexed": false,
          "internalType": "uint256",
          "name": "_tokenId",
          "type": "uint256"
        }
      ],
      "name": "MetadataUpdate",
      "type": "event"
    },
    {
      "anonymous": false,
      "inputs": [
        {
          "indexed": false,
          "internalType": "uint256",
          "name": "",
          "type": "uint256"
        }
      ],
      "name": "NFTMinted",
      "type": "event"
    },
    {
      "anonymous": false,
      "inputs": [
        {
          "indexed": true,
          "internalType": "address",
          "name": "from",
          "type": "address"
        },
        {
          "indexed": true,
          "internalType": "address",
          "name": "to",
          "type": "address"
        },
        {
          "indexed": true,
          "internalType": "uint256",
          "name": "tokenId",
          "type": "uint256"
        }
      ],
      "name": "Transfer",
      "type": "event"
    },
    {
      "inputs": [
        {
          "internalType": "address",
          "name": "to",
          "type": "address"
        },
        {
          "internalType": "uint256",
          "name": "tokenId",
          "type": "uint256"
        }
      ],
      "name": "approve",
      "outputs": [],
      "stateMutability": "nonpayable",
      "type": "function"
    },
    {
      "inputs": [
        {
          "internalType": "address",
          "name": "owner",
          "type": "address"
        }
      ],
      "name": "balanceOf",
      "outputs": [
        {
          "internalType": "uint256",
          "name": "",
          "type": "uint256"
        }
      ],
      "stateMutability": "view",
      "type": "function"
    },
    {
      "inputs": [
        {
          "internalType": "uint256",
          "name": "tokenId",
          "type": "uint256"
        }
      ],
      "name": "getApproved",
      "outputs": [
        {
          "internalType": "address",
          "name": "",
          "type": "address"
        }
      ],
      "stateMutability": "view",
      "type": "function"
    },
    {
      "inputs": [
        {
          "internalType": "address",
          "name": "owner",
          "type": "address"
        },
        {
          "internalType": "address",
          "name": "operator",
          "type": "address"
        }
      ],
      "name": "isApprovedForAll",
      "outputs": [
        {
          "internalType": "bool",
          "name": "",
          "type": "bool"
        }
      ],
      "stateMutability": "view",
      "type": "function"
    },
    {
      "inputs": [
        {
          "internalType": "string",
          "name": "_tokenURI",
          "type": "string"
        }
      ],
      "name": "mint",
      "outputs": [],
      "stateMutability": "nonpayable",
      "type": "function"
    },
    {
      "inputs": [],
      "name": "name",
      "outputs": [
        {
          "internalType": "string",
          "name": "",
          "type": "string"
        }
      ],
      "stateMutability": "view",
      "type": "function"
    },
    {
      "inputs": [
        {
          "internalType": "uint256",
          "name": "tokenId",
          "type": "uint256"
        }
      ],
      "name": "ownerOf",
      "outputs": [
        {
          "internalType": "address",
          "name": "",
          "type": "address"
        }
      ],
      "stateMutability": "view",
      "type": "function"
    },
    {
      "inputs": [
        {
          "internalType": "address",
          "name": "from",
          "type": "address"
        },
        {
          "internalType": "address",
          "name": "to",
          "type": "address"
        },
        {
          "internalType": "uint256",
          "name": "tokenId",
          "type": "uint256"
        }
      ],
      "name": "safeTransferFrom",
      "outputs": [],
      "stateMutability": "nonpayable",
      "type": "function"
    },
    {
      "inputs": [
        {
          "internalType": "address",
          "name": "from",
          "type": "address"
        },
        {
          "internalType": "address",
          "name": "to",
          "type": "address"
        },
        {
          "internalType": "uint256",
          "name": "tokenId",
          "type": "uint256"
        },
        {
          "internalType": "bytes",
          "name": "data",
          "type": "bytes"
        }
      ],
      "name": "safeTransferFrom",
      "outputs": [],
      "stateMutability": "nonpayable",
      "type": "function"
    },
    {
      "inputs": [
        {
          "internalType": "address",
          "name": "operator",
          "type": "address"
        },
        {
          "internalType": "bool",
          "name": "approved",
          "type": "bool"
        }
      ],
      "name": "setApprovalForAll",
      "outputs": [],
      "stateMutability": "nonpayable",
      "type": "function"
    },
    {
      "inputs": [
        {
          "internalType": "bytes4",
          "name": "interfaceId",
          "type": "bytes4"
        }
      ],
      "name": "supportsInterface",
      "outputs": [
        {
          "internalType": "bool",
          "name": "",
          "type": "bool"
        }
      ],
      "stateMutability": "view",
      "type": "function"
    },
    {
      "inputs": [],
      "name": "symbol",
      "outputs": [
        {
          "internalType": "string",
          "name": "",
          "type": "string"
        }
      ],
      "stateMutability": "view",
      "type": "function"
    },
    {
      "inputs": [
        {
          "internalType": "uint256",
          "name": "tokenId",
          "type": "uint256"
        }
      ],
      "name": "tokenURI",
      "outputs": [
        {
          "internalType": "string",
          "name": "",
          "type": "string"
        }
      ],
      "stateMutability": "view",
      "type": "function"
    },
    {
      "inputs": [
        {
          "internalType": "address",
          "name": "from",
          "type": "address"
        },
        {
          "internalType": "address",
          "name": "to",
          "type": "address"
        },
        {
          "internalType": "uint256",
          "name": "tokenId",
          "type": "uint256"
        }
      ],
      "name": "transferFrom",
      "outputs": [],
      "stateMutability": "nonpayable",
      "type": "function"
    }
  ],
  "bytecode": "0x60806040523480156200001157600080fd5b50604051620030ac380380620030ac83398181016040528101906200003791906200017b565b6040518060400160405280600381526020017f41727400000000000000000000000000000000000000000000000000000000008152506040518060400160405280600381526020017f41525400000000000000000000000000000000000000000000000000000000008152508160009081620000b4919062000427565b508060019081620000c6919062000427565b50505080600860006101000a81548173ffffffffffffffffffffffffffffffffffffffff021916908373ffffffffffffffffffffffffffffffffffffffff160217905550506200050e565b600080fd5b600073ffffffffffffffffffffffffffffffffffffffff82169050919050565b6000620001438262000116565b9050919050565b620001558162000136565b81146200016157600080fd5b50565b60008151905062000175816200014a565b92915050565b60006020828403121562000194576200019362000111565b5b6000620001a48482850162000164565b91505092915050565b600081519050919050565b7f4e487b7100000000000000000000000000000000000000000000000000000000600052604160045260246000fd5b7f4e487b7100000000000000000000000000000000000000000000000000000000600052602260045260246000fd5b600060028204905060018216806200022f57607f821691505b602082108103620002455762000244620001e7565b5b50919050565b60008190508160005260206000209050919050565b60006020601f8301049050919050565b600082821b905092915050565b600060088302620002af7fffffffffffffffffffffffffffffffffffffffffffffffffffffffffffffffff8262000270565b620002bb868362000270565b95508019841693508086168417925050509392505050565b6000819050919050565b6000819050919050565b60006200030862000302620002fc84620002d3565b620002dd565b620002d3565b9050919050565b6000819050919050565b6200032483620002e7565b6200033c62000333826200030f565b8484546200027d565b825550505050565b600090565b6200035362000344565b6200036081848462000319565b505050565b5b8181101562000388576200037c60008262000349565b60018101905062000366565b5050565b601f821115620003d757620003a1816200024b565b620003ac8462000260565b81016020851015620003bc578190505b620003d4620003cb8562000260565b83018262000365565b50505b505050565b600082821c905092915050565b6000620003fc60001984600802620003dc565b1980831691505092915050565b6000620004178383620003e9565b9150826002028217905092915050565b6200043282620001ad565b67ffffffffffffffff8111156200044e576200044d620001b8565b5b6200045a825462000216565b620004678282856200038c565b600060209050601f8311600181146200049f57600084156200048a578287015190505b62000496858262000409565b86555062000506565b601f198416620004af866200024b565b60005b82811015620004d957848901518255600182019150602085019450602081019050620004b2565b86831015620004f95784890151620004f5601f891682620003e9565b8355505b6001600288020188555050505b505050505050565b612b8e806200051e6000396000f3fe608060405234801561001057600080fd5b50600436106100ea5760003560e01c806370a082311161008c578063b88d4fde11610066578063b88d4fde1461025b578063c87b56dd14610277578063d85d3d27146102a7578063e985e9c5146102c3576100ea565b806370a08231146101f157806395d89b4114610221578063a22cb4651461023f576100ea565b8063095ea7b3116100c8578063095ea7b31461016d57806323b872dd1461018957806342842e0e146101a55780636352211e146101c1576100ea565b806301ffc9a7146100ef57806306fdde031461011f578063081812fc1461013d575b600080fd5b61010960048036038101906101049190611a90565b6102f3565b6040516101169190611ad8565b60405180910390f35b610127610354565b6040516101349190611b83565b60405180910390f35b61015760048036038101906101529190611bdb565b6103e6565b6040516101649190611c49565b60405180910390f35b61018760048036038101906101829190611c90565b61042c565b005b6101a3600480360381019061019e9190611cd0565b610543565b005b6101bf60048036038101906101ba9190611cd0565b6105a3565b005b6101db60048036038101906101d69190611bdb565b6105c3565b6040516101e89190611c49565b60405180910390f35b61020b60048036038101906102069190611d23565b610649565b6040516102189190611d5f565b60405180910390f35b610229610700565b6040516102369190611b83565b60405180910390f35b61025960048036038101906102549190611da6565b610792565b005b61027560048036038101906102709190611f1b565b6107a8565b005b610291600480360381019061028c9190611bdb565b61080a565b60405161029e9190611b83565b60405180910390f35b6102c160048036038101906102bc919061203f565b61091c565b005b6102dd60048036038101906102d89190612088565b6109b0565b6040516102ea9190611ad8565b60405180910390f35b6000634906490660e01b7bffffffffffffffffffffffffffffffffffffffffffffffffffffffff1916827bffffffffffffffffffffffffffffffffffffffffffffffffffffffff1916148061034d575061034c82610a44565b5b9050919050565b606060008054610363906120f7565b80601f016020809104026020016040519081016040528092919081815260200182805461038f906120f7565b80156103dc5780601f106103b1576101008083540402835291602001916103dc565b820191906000526020600020905b8154815290600101906020018083116103bf57829003601f168201915b5050505050905090565b60006103f182610b26565b6004600083815260200190815260200160002060009054906101000a900473ffffffffffffffffffffffffffffffffffffffff169050919050565b6000610437826105c3565b90508073ffffffffffffffffffffffffffffffffffffffff168373ffffffffffffffffffffffffffffffffffffffff16036104a7576040517f08c379a000000000000000000000000000000000000000000000000000000000815260040161049e9061219a565b60405180910390fd5b8073ffffffffffffffffffffffffffffffffffffffff166104c6610b71565b73ffffffffffffffffffffffffffffffffffffffff1614806104f557506104f4816104ef610b71565b6109b0565b5b610534576040517f08c379a000000000000000000000000000000000000000000000000000000000815260040161052b9061222c565b60405180910390fd5b61053e8383610b79565b505050565b61055461054e610b71565b82610c32565b610593576040517f08c379a000000000000000000000000000000000000000000000000000000000815260040161058a906122be565b60405180910390fd5b61059e838383610cc7565b505050565b6105be838383604051806020016040528060008152506107a8565b505050565b6000806105cf83610fc0565b9050600073ffffffffffffffffffffffffffffffffffffffff168173ffffffffffffffffffffffffffffffffffffffff1603610640576040517f08c379a00000000000000000000000000000000000000000000000000000000081526004016106379061232a565b60405180910390fd5b80915050919050565b60008073ffffffffffffffffffffffffffffffffffffffff168273ffffffffffffffffffffffffffffffffffffffff16036106b9576040517f08c379a00000000000000000000000000000000000000000000000000000000081526004016106b0906123bc565b60405180910390fd5b600360008373ffffffffffffffffffffffffffffffffffffffff1673ffffffffffffffffffffffffffffffffffffffff168152602001908152602001600020549050919050565b60606001805461070f906120f7565b80601f016020809104026020016040519081016040528092919081815260200182805461073b906120f7565b80156107885780601f1061075d57610100808354040283529160200191610788565b820191906000526020600020905b81548152906001019060200180831161076b57829003601f168201915b5050505050905090565b6107a461079d610b71565b8383610ffd565b5050565b6107b96107b3610b71565b83610c32565b6107f8576040517f08c379a00000000000000000000000000000000000000000000000000000000081526004016107ef906122be565b60405180910390fd5b61080484848484611169565b50505050565b606061081582610b26565b6000600660008481526020019081526020016000208054610835906120f7565b80601f0160208091040260200160405190810160405280929190818152602001828054610861906120f7565b80156108ae5780601f10610883576101008083540402835291602001916108ae565b820191906000526020600020905b81548152906001019060200180831161089157829003601f168201915b5050505050905060006108bf6111c5565b905060008151036108d4578192505050610917565b6000825111156109095780826040516020016108f1929190612418565b60405160208183030381529060405292505050610917565b610912846111dc565b925050505b919050565b6109266007611244565b6000610932600761125a565b905061093e3382611268565b6109488183611286565b610975600860009054906101000a900473ffffffffffffffffffffffffffffffffffffffff166001610792565b7fd9dc24857f317ed9abbbb42e920ede0104231eb1d3d70236a74887ffaf159868816040516109a49190611d5f565b60405180910390a15050565b6000600560008473ffffffffffffffffffffffffffffffffffffffff1673ffffffffffffffffffffffffffffffffffffffff16815260200190815260200160002060008373ffffffffffffffffffffffffffffffffffffffff1673ffffffffffffffffffffffffffffffffffffffff16815260200190815260200160002060009054906101000a900460ff16905092915050565b60007f80ac58cd000000000000000000000000000000000000000000000000000000007bffffffffffffffffffffffffffffffffffffffffffffffffffffffff1916827bffffffffffffffffffffffffffffffffffffffffffffffffffffffff19161480610b0f57507f5b5e139f000000000000000000000000000000000000000000000000000000007bffffffffffffffffffffffffffffffffffffffffffffffffffffffff1916827bffffffffffffffffffffffffffffffffffffffffffffffffffffffff1916145b80610b1f5750610b1e8261132a565b5b9050919050565b610b2f81611394565b610b6e576040517f08c379a0000000000000000000000000000000000000000000000000000000008152600401610b659061232a565b60405180910390fd5b50565b600033905090565b816004600083815260200190815260200160002060006101000a81548173ffffffffffffffffffffffffffffffffffffffff021916908373ffffffffffffffffffffffffffffffffffffffff160217905550808273ffffffffffffffffffffffffffffffffffffffff16610bec836105c3565b73ffffffffffffffffffffffffffffffffffffffff167f8c5be1e5ebec7d5bd14f71427d1e84f3dd0314c0f7b2291e5b200ac8c7c3b92560405160405180910390a45050565b600080610c3e836105c3565b90508073ffffffffffffffffffffffffffffffffffffffff168473ffffffffffffffffffffffffffffffffffffffff161480610c805750610c7f81856109b0565b5b80610cbe57508373ffffffffffffffffffffffffffffffffffffffff16610ca6846103e6565b73ffffffffffffffffffffffffffffffffffffffff16145b91505092915050565b8273ffffffffffffffffffffffffffffffffffffffff16610ce7826105c3565b73ffffffffffffffffffffffffffffffffffffffff1614610d3d576040517f08c379a0000000000000000000000000000000000000000000000000000000008152600401610d34906124ae565b60405180910390fd5b600073ffffffffffffffffffffffffffffffffffffffff168273ffffffffffffffffffffffffffffffffffffffff1603610dac576040517f08c379a0000000000000000000000000000000000000000000000000000000008152600401610da390612540565b60405180910390fd5b610db983838360016113d5565b8273ffffffffffffffffffffffffffffffffffffffff16610dd9826105c3565b73ffffffffffffffffffffffffffffffffffffffff1614610e2f576040517f08c379a0000000000000000000000000000000000000000000000000000000008152600401610e26906124ae565b60405180910390fd5b6004600082815260200190815260200160002060006101000a81549073ffffffffffffffffffffffffffffffffffffffff02191690556001600360008573ffffffffffffffffffffffffffffffffffffffff1673ffffffffffffffffffffffffffffffffffffffff168152602001908152602001600020600082825403925050819055506001600360008473ffffffffffffffffffffffffffffffffffffffff1673ffffffffffffffffffffffffffffffffffffffff16815260200190815260200160002060008282540192505081905550816002600083815260200190815260200160002060006101000a81548173ffffffffffffffffffffffffffffffffffffffff021916908373ffffffffffffffffffffffffffffffffffffffff160217905550808273ffffffffffffffffffffffffffffffffffffffff168473ffffffffffffffffffffffffffffffffffffffff167fddf252ad1be2c89b69c2b068fc378daa952ba7f163c4a11628f55a4df523b3ef60405160405180910390a4610fbb83838360016113db565b505050565b60006002600083815260200190815260200160002060009054906101000a900473ffffffffffffffffffffffffffffffffffffffff169050919050565b8173ffffffffffffffffffffffffffffffffffffffff168373ffffffffffffffffffffffffffffffffffffffff160361106b576040517f08c379a0000000000000000000000000000000000000000000000000000000008152600401611062906125ac565b60405180910390fd5b80600560008573ffffffffffffffffffffffffffffffffffffffff1673ffffffffffffffffffffffffffffffffffffffff16815260200190815260200160002060008473ffffffffffffffffffffffffffffffffffffffff1673ffffffffffffffffffffffffffffffffffffffff16815260200190815260200160002060006101000a81548160ff0219169083151502179055508173ffffffffffffffffffffffffffffffffffffffff168373ffffffffffffffffffffffffffffffffffffffff167f17307eab39ab6107e8899845ad3d59bd9653f200f220920489ca2b5937696c318360405161115c9190611ad8565b60405180910390a3505050565b611174848484610cc7565b611180848484846113e1565b6111bf576040517f08c379a00000000000000000000000000000000000000000000000000000000081526004016111b69061263e565b60405180910390fd5b50505050565b606060405180602001604052806000815250905090565b60606111e782610b26565b60006111f16111c5565b90506000815111611211576040518060200160405280600081525061123c565b8061121b84611568565b60405160200161122c929190612418565b6040516020818303038152906040525b915050919050565b6001816000016000828254019250508190555050565b600081600001549050919050565b611282828260405180602001604052806000815250611636565b5050565b61128f82611394565b6112ce576040517f08c379a00000000000000000000000000000000000000000000000000000000081526004016112c5906126d0565b60405180910390fd5b806006600084815260200190815260200160002090816112ee919061289c565b507ff8e1a15aba9398e019f0b49df1a4fde98ee17ae345cb5f6b5e2c27f5033e8ce78260405161131e9190611d5f565b60405180910390a15050565b60007f01ffc9a7000000000000000000000000000000000000000000000000000000007bffffffffffffffffffffffffffffffffffffffffffffffffffffffff1916827bffffffffffffffffffffffffffffffffffffffffffffffffffffffff1916149050919050565b60008073ffffffffffffffffffffffffffffffffffffffff166113b683610fc0565b73ffffffffffffffffffffffffffffffffffffffff1614159050919050565b50505050565b50505050565b60006114028473ffffffffffffffffffffffffffffffffffffffff16611691565b1561155b578373ffffffffffffffffffffffffffffffffffffffff1663150b7a0261142b610b71565b8786866040518563ffffffff1660e01b815260040161144d94939291906129c3565b6020604051808303816000875af192505050801561148957506040513d601f19601f820116820180604052508101906114869190612a24565b60015b61150b573d80600081146114b9576040519150601f19603f3d011682016040523d82523d6000602084013e6114be565b606091505b506000815103611503576040517f08c379a00000000000000000000000000000000000000000000000000000000081526004016114fa9061263e565b60405180910390fd5b805181602001fd5b63150b7a0260e01b7bffffffffffffffffffffffffffffffffffffffffffffffffffffffff1916817bffffffffffffffffffffffffffffffffffffffffffffffffffffffff191614915050611560565b600190505b949350505050565b606060006001611577846116b4565b01905060008167ffffffffffffffff81111561159657611595611df0565b5b6040519080825280601f01601f1916602001820160405280156115c85781602001600182028036833780820191505090505b509050600082602001820190505b60011561162b578080600190039150507f3031323334353637383961626364656600000000000000000000000000000000600a86061a8153600a858161161f5761161e612a51565b5b049450600085036115d6575b819350505050919050565b6116408383611807565b61164d60008484846113e1565b61168c576040517f08c379a00000000000000000000000000000000000000000000000000000000081526004016116839061263e565b60405180910390fd5b505050565b6000808273ffffffffffffffffffffffffffffffffffffffff163b119050919050565b600080600090507a184f03e93ff9f4daa797ed6e38ed64bf6a1f0100000000000000008310611712577a184f03e93ff9f4daa797ed6e38ed64bf6a1f010000000000000000838161170857611707612a51565b5b0492506040810190505b6d04ee2d6d415b85acef8100000000831061174f576d04ee2d6d415b85acef8100000000838161174557611744612a51565b5b0492506020810190505b662386f26fc10000831061177e57662386f26fc10000838161177457611773612a51565b5b0492506010810190505b6305f5e10083106117a7576305f5e100838161179d5761179c612a51565b5b0492506008810190505b61271083106117cc5761271083816117c2576117c1612a51565b5b0492506004810190505b606483106117ef57606483816117e5576117e4612a51565b5b0492506002810190505b600a83106117fe576001810190505b80915050919050565b600073ffffffffffffffffffffffffffffffffffffffff168273ffffffffffffffffffffffffffffffffffffffff1603611876576040517f08c379a000000000000000000000000000000000000000000000000000000000815260040161186d90612acc565b60405180910390fd5b61187f81611394565b156118bf576040517f08c379a00000000000000000000000000000000000000000000000000000000081526004016118b690612b38565b60405180910390fd5b6118cd6000838360016113d5565b6118d681611394565b15611916576040517f08c379a000000000000000000000000000000000000000000000000000000000815260040161190d90612b38565b60405180910390fd5b6001600360008473ffffffffffffffffffffffffffffffffffffffff1673ffffffffffffffffffffffffffffffffffffffff16815260200190815260200160002060008282540192505081905550816002600083815260200190815260200160002060006101000a81548173ffffffffffffffffffffffffffffffffffffffff021916908373ffffffffffffffffffffffffffffffffffffffff160217905550808273ffffffffffffffffffffffffffffffffffffffff16600073ffffffffffffffffffffffffffffffffffffffff167fddf252ad1be2c89b69c2b068fc378daa952ba7f163c4a11628f55a4df523b3ef60405160405180910390a4611a206000838360016113db565b5050565b6000604051905090565b600080fd5b600080fd5b60007fffffffff0000000000000000000000000000000000000000000000000000000082169050919050565b611a6d81611a38565b8114611a7857600080fd5b50565b600081359050611a8a81611a64565b92915050565b600060208284031215611aa657611aa5611a2e565b5b6000611ab484828501611a7b565b91505092915050565b60008115159050919050565b611ad281611abd565b82525050565b6000602082019050611aed6000830184611ac9565b92915050565b600081519050919050565b600082825260208201905092915050565b60005b83811015611b2d578082015181840152602081019050611b12565b60008484015250505050565b6000601f19601f8301169050919050565b6000611b5582611af3565b611b5f8185611afe565b9350611b6f818560208601611b0f565b611b7881611b39565b840191505092915050565b60006020820190508181036000830152611b9d8184611b4a565b905092915050565b6000819050919050565b611bb881611ba5565b8114611bc357600080fd5b50565b600081359050611bd581611baf565b92915050565b600060208284031215611bf157611bf0611a2e565b5b6000611bff84828501611bc6565b91505092915050565b600073ffffffffffffffffffffffffffffffffffffffff82169050919050565b6000611c3382611c08565b9050919050565b611c4381611c28565b82525050565b6000602082019050611c5e6000830184611c3a565b92915050565b611c6d81611c28565b8114611c7857600080fd5b50565b600081359050611c8a81611c64565b92915050565b60008060408385031215611ca757611ca6611a2e565b5b6000611cb585828601611c7b565b9250506020611cc685828601611bc6565b9150509250929050565b600080600060608486031215611ce957611ce8611a2e565b5b6000611cf786828701611c7b565b9350506020611d0886828701611c7b565b9250506040611d1986828701611bc6565b9150509250925092565b600060208284031215611d3957611d38611a2e565b5b6000611d4784828501611c7b565b91505092915050565b611d5981611ba5565b82525050565b6000602082019050611d746000830184611d50565b92915050565b611d8381611abd565b8114611d8e57600080fd5b50565b600081359050611da081611d7a565b92915050565b60008060408385031215611dbd57611dbc611a2e565b5b6000611dcb85828601611c7b565b9250506020611ddc85828601611d91565b9150509250929050565b600080fd5b600080fd5b7f4e487b7100000000000000000000000000000000000000000000000000000000600052604160045260246000fd5b611e2882611b39565b810181811067ffffffffffffffff82111715611e4757611e46611df0565b5b80604052505050565b6000611e5a611a24565b9050611e668282611e1f565b919050565b600067ffffffffffffffff821115611e8657611e85611df0565b5b611e8f82611b39565b9050602081019050919050565b82818337600083830152505050565b6000611ebe611eb984611e6b565b611e50565b905082815260208101848484011115611eda57611ed9611deb565b5b611ee5848285611e9c565b509392505050565b600082601f830112611f0257611f01611de6565b5b8135611f12848260208601611eab565b91505092915050565b60008060008060808587031215611f3557611f34611a2e565b5b6000611f4387828801611c7b565b9450506020611f5487828801611c7b565b9350506040611f6587828801611bc6565b925050606085013567ffffffffffffffff811115611f8657611f85611a33565b5b611f9287828801611eed565b91505092959194509250565b600067ffffffffffffffff821115611fb957611fb8611df0565b5b611fc282611b39565b9050602081019050919050565b6000611fe2611fdd84611f9e565b611e50565b905082815260208101848484011115611ffe57611ffd611deb565b5b612009848285611e9c565b509392505050565b600082601f83011261202657612025611de6565b5b8135612036848260208601611fcf565b91505092915050565b60006020828403121561205557612054611a2e565b5b600082013567ffffffffffffffff81111561207357612072611a33565b5b61207f84828501612011565b91505092915050565b6000806040838503121561209f5761209e611a2e565b5b60006120ad85828601611c7b565b92505060206120be85828601611c7b565b9150509250929050565b7f4e487b7100000000000000000000000000000000000000000000000000000000600052602260045260246000fd5b6000600282049050600182168061210f57607f821691505b602082108103612122576121216120c8565b5b50919050565b7f4552433732313a20617070726f76616c20746f2063757272656e74206f776e6560008201527f7200000000000000000000000000000000000000000000000000000000000000602082015250565b6000612184602183611afe565b915061218f82612128565b604082019050919050565b600060208201905081810360008301526121b381612177565b9050919050565b7f4552433732313a20617070726f76652063616c6c6572206973206e6f7420746f60008201527f6b656e206f776e6572206f7220617070726f76656420666f7220616c6c000000602082015250565b6000612216603d83611afe565b9150612221826121ba565b604082019050919050565b6000602082019050818103600083015261224581612209565b9050919050565b7f4552433732313a2063616c6c6572206973206e6f7420746f6b656e206f776e6560008201527f72206f7220617070726f76656400000000000000000000000000000000000000602082015250565b60006122a8602d83611afe565b91506122b38261224c565b604082019050919050565b600060208201905081810360008301526122d78161229b565b9050919050565b7f4552433732313a20696e76616c696420746f6b656e2049440000000000000000600082015250565b6000612314601883611afe565b915061231f826122de565b602082019050919050565b6000602082019050818103600083015261234381612307565b9050919050565b7f4552433732313a2061646472657373207a65726f206973206e6f74206120766160008201527f6c6964206f776e65720000000000000000000000000000000000000000000000602082015250565b60006123a6602983611afe565b91506123b18261234a565b604082019050919050565b600060208201905081810360008301526123d581612399565b9050919050565b600081905092915050565b60006123f282611af3565b6123fc81856123dc565b935061240c818560208601611b0f565b80840191505092915050565b600061242482856123e7565b915061243082846123e7565b91508190509392505050565b7f4552433732313a207472616e736665722066726f6d20696e636f72726563742060008201527f6f776e6572000000000000000000000000000000000000000000000000000000602082015250565b6000612498602583611afe565b91506124a38261243c565b604082019050919050565b600060208201905081810360008301526124c78161248b565b9050919050565b7f4552433732313a207472616e7366657220746f20746865207a65726f2061646460008201527f7265737300000000000000000000000000000000000000000000000000000000602082015250565b600061252a602483611afe565b9150612535826124ce565b604082019050919050565b600060208201905081810360008301526125598161251d565b9050919050565b7f4552433732313a20617070726f766520746f2063616c6c657200000000000000600082015250565b6000612596601983611afe565b91506125a182612560565b602082019050919050565b600060208201905081810360008301526125c581612589565b9050919050565b7f4552433732313a207472616e7366657220746f206e6f6e20455243373231526560008201527f63656976657220696d706c656d656e7465720000000000000000000000000000602082015250565b6000612628603283611afe565b9150612633826125cc565b604082019050919050565b600060208201905081810360008301526126578161261b565b9050919050565b7f45524337323155524953746f726167653a2055524920736574206f66206e6f6e60008201527f6578697374656e7420746f6b656e000000000000000000000000000000000000602082015250565b60006126ba602e83611afe565b91506126c58261265e565b604082019050919050565b600060208201905081810360008301526126e9816126ad565b9050919050565b60008190508160005260206000209050919050565b60006020601f8301049050919050565b600082821b905092915050565b6000600883026127527fffffffffffffffffffffffffffffffffffffffffffffffffffffffffffffffff82612715565b61275c8683612715565b95508019841693508086168417925050509392505050565b6000819050919050565b600061279961279461278f84611ba5565b612774565b611ba5565b9050919050565b6000819050919050565b6127b38361277e565b6127c76127bf826127a0565b848454612722565b825550505050565b600090565b6127dc6127cf565b6127e78184846127aa565b505050565b5b8181101561280b576128006000826127d4565b6001810190506127ed565b5050565b601f82111561285057612821816126f0565b61282a84612705565b81016020851015612839578190505b61284d61284585612705565b8301826127ec565b50505b505050565b600082821c905092915050565b600061287360001984600802612855565b1980831691505092915050565b600061288c8383612862565b9150826002028217905092915050565b6128a582611af3565b67ffffffffffffffff8111156128be576128bd611df0565b5b6128c882546120f7565b6128d382828561280f565b600060209050601f83116001811461290657600084156128f4578287015190505b6128fe8582612880565b865550612966565b601f198416612914866126f0565b60005b8281101561293c57848901518255600182019150602085019450602081019050612917565b868310156129595784890151612955601f891682612862565b8355505b6001600288020188555050505b505050505050565b600081519050919050565b600082825260208201905092915050565b60006129958261296e565b61299f8185612979565b93506129af818560208601611b0f565b6129b881611b39565b840191505092915050565b60006080820190506129d86000830187611c3a565b6129e56020830186611c3a565b6129f26040830185611d50565b8181036060830152612a04818461298a565b905095945050505050565b600081519050612a1e81611a64565b92915050565b600060208284031215612a3a57612a39611a2e565b5b6000612a4884828501612a0f565b91505092915050565b7f4e487b7100000000000000000000000000000000000000000000000000000000600052601260045260246000fd5b7f4552433732313a206d696e7420746f20746865207a65726f2061646472657373600082015250565b6000612ab6602083611afe565b9150612ac182612a80565b602082019050919050565b60006020820190508181036000830152612ae581612aa9565b9050919050565b7f4552433732313a20746f6b656e20616c7265616479206d696e74656400000000600082015250565b6000612b22601c83611afe565b9150612b2d82612aec565b602082019050919050565b60006020820190508181036000830152612b5181612b15565b905091905056fea26469706673582212205c7ff6cbae385a93ed2b53c5de10949bb9ea0d75c183cd640e90ca30943102d564736f6c63430008130033",
  "linkReferences": {},
  "deployedLinkReferences": {}
}