{
  "_format": "hh-sol-artifact-1",
  "contractName": "marketplace",
  "sourceName": "contracts/marketplace.sol",
  "abi": [
    {
      "inputs": [],
      "stateMutability": "nonpayable",
      "type": "constructor"
    },
    {
      "anonymous": false,
      "inputs": [
        {
          "indexed": false,
          "internalType": "address",
          "name": "nftContract",
          "type": "address"
        },
        {
          "indexed": false,
          "internalType": "uint256",
          "name": "tokenId",
          "type": "uint256"
        },
        {
          "indexed": false,
          "internalType": "address",
          "name": "seller",
          "type": "address"
        },
        {
          "indexed": false,
          "internalType": "address",
          "name": "owner",
          "type": "address"
        },
        {
          "indexed": false,
          "internalType": "uint256",
          "name": "price",
          "type": "uint256"
        }
      ],
      "name": "NFTListed",
      "type": "event"
    },
    {
      "anonymous": false,
      "inputs": [
        {
          "indexed": false,
          "internalType": "address",
          "name": "nftContract",
          "type": "address"
        },
        {
          "indexed": false,
          "internalType": "uint256",
          "name": "tokenId",
          "type": "uint256"
        },
        {
          "indexed": false,
          "internalType": "address",
          "name": "seller",
          "type": "address"
        },
        {
          "indexed": false,
          "internalType": "address",
          "name": "owner",
          "type": "address"
        },
        {
          "indexed": false,
          "internalType": "uint256",
          "name": "price",
          "type": "uint256"
        }
      ],
      "name": "NFTSold",
      "type": "event"
    },
    {
      "inputs": [
        {
          "internalType": "address",
          "name": "_nftContract",
          "type": "address"
        },
        {
          "internalType": "uint256",
          "name": "_tokenId",
          "type": "uint256"
        }
      ],
      "name": "buyNft",
      "outputs": [],
      "stateMutability": "payable",
      "type": "function"
    },
    {
      "inputs": [],
      "name": "getListedNfts",
      "outputs": [
        {
          "components": [
            {
              "internalType": "address",
              "name": "nftContract",
              "type": "address"
            },
            {
              "internalType": "uint256",
              "name": "tokenId",
              "type": "uint256"
            },
            {
              "internalType": "address payable",
              "name": "seller",
              "type": "address"
            },
            {
              "internalType": "address payable",
              "name": "owner",
              "type": "address"
            },
            {
              "internalType": "uint256",
              "name": "price",
              "type": "uint256"
            },
            {
              "internalType": "bool",
              "name": "listed",
              "type": "bool"
            }
          ],
          "internalType": "struct marketplace.NFT[]",
          "name": "",
          "type": "tuple[]"
        }
      ],
      "stateMutability": "view",
      "type": "function"
    },
    {
      "inputs": [],
      "name": "getMyListedNfts",
      "outputs": [
        {
          "components": [
            {
              "internalType": "address",
              "name": "nftContract",
              "type": "address"
            },
            {
              "internalType": "uint256",
              "name": "tokenId",
              "type": "uint256"
            },
            {
              "internalType": "address payable",
              "name": "seller",
              "type": "address"
            },
            {
              "internalType": "address payable",
              "name": "owner",
              "type": "address"
            },
            {
              "internalType": "uint256",
              "name": "price",
              "type": "uint256"
            },
            {
              "internalType": "bool",
              "name": "listed",
              "type": "bool"
            }
          ],
          "internalType": "struct marketplace.NFT[]",
          "name": "",
          "type": "tuple[]"
        }
      ],
      "stateMutability": "view",
      "type": "function"
    },
    {
      "inputs": [],
      "name": "getMyNfts",
      "outputs": [
        {
          "components": [
            {
              "internalType": "address",
              "name": "nftContract",
              "type": "address"
            },
            {
              "internalType": "uint256",
              "name": "tokenId",
              "type": "uint256"
            },
            {
              "internalType": "address payable",
              "name": "seller",
              "type": "address"
            },
            {
              "internalType": "address payable",
              "name": "owner",
              "type": "address"
            },
            {
              "internalType": "uint256",
              "name": "price",
              "type": "uint256"
            },
            {
              "internalType": "bool",
              "name": "listed",
              "type": "bool"
            }
          ],
          "internalType": "struct marketplace.NFT[]",
          "name": "",
          "type": "tuple[]"
        }
      ],
      "stateMutability": "view",
      "type": "function"
    },
    {
      "inputs": [
        {
          "internalType": "address",
          "name": "_nftContract",
          "type": "address"
        },
        {
          "internalType": "uint256",
          "name": "_tokenId",
          "type": "uint256"
        },
        {
          "internalType": "uint256",
          "name": "_price",
          "type": "uint256"
        }
      ],
      "name": "listNft",
      "outputs": [],
      "stateMutability": "payable",
      "type": "function"
    },
    {
      "inputs": [
        {
          "internalType": "address",
          "name": "_nftContract",
          "type": "address"
        },
        {
          "internalType": "uint256",
          "name": "_tokenId",
          "type": "uint256"
        },
        {
          "internalType": "uint256",
          "name": "_price",
          "type": "uint256"
        }
      ],
      "name": "resellNft",
      "outputs": [],
      "stateMutability": "payable",
      "type": "function"
    }
  ],
  "bytecode": "0x608060405234801561001057600080fd5b50600160008190555033600360006101000a81548173ffffffffffffffffffffffffffffffffffffffff021916908373ffffffffffffffffffffffffffffffffffffffff160217905550611a1c806100696000396000f3fe6080604052600436106100555760003560e01c8063047b07bf1461005a5780631f4cc4db1461008557806334f5b624146100b05780634ddf4f8f146100cc5780638d6cb3fb146100e8578063c922b17c14610113575b600080fd5b34801561006657600080fd5b5061006f61012f565b60405161007c919061141f565b60405180910390f35b34801561009157600080fd5b5061009a610462565b6040516100a7919061141f565b60405180910390f35b6100ca60048036038101906100c5919061149e565b610807565b005b6100e660048036038101906100e191906114f1565b6109db565b005b3480156100f457600080fd5b506100fd610c03565b60405161010a919061141f565b60405180910390f35b61012d6004803603810190610128919061149e565b610e6b565b005b6060600061013d600261110c565b90506000805b828110156101e2573373ffffffffffffffffffffffffffffffffffffffff16600460006001846101739190611560565b815260200190815260200160002060030160009054906101000a900473ffffffffffffffffffffffffffffffffffffffff1673ffffffffffffffffffffffffffffffffffffffff16036101cf5781806101cb90611594565b9250505b80806101da90611594565b915050610143565b5060008167ffffffffffffffff8111156101ff576101fe6115dc565b5b60405190808252806020026020018201604052801561023857816020015b6102256111e5565b81526020019060019003908161021d5790505b5090506000805b84811015610457573373ffffffffffffffffffffffffffffffffffffffff166004600060018461026f9190611560565b815260200190815260200160002060030160009054906101000a900473ffffffffffffffffffffffffffffffffffffffff1673ffffffffffffffffffffffffffffffffffffffff160361044457600460006001836102cd9190611560565b81526020019081526020016000206040518060c00160405290816000820160009054906101000a900473ffffffffffffffffffffffffffffffffffffffff1673ffffffffffffffffffffffffffffffffffffffff1673ffffffffffffffffffffffffffffffffffffffff168152602001600182015481526020016002820160009054906101000a900473ffffffffffffffffffffffffffffffffffffffff1673ffffffffffffffffffffffffffffffffffffffff1673ffffffffffffffffffffffffffffffffffffffff1681526020016003820160009054906101000a900473ffffffffffffffffffffffffffffffffffffffff1673ffffffffffffffffffffffffffffffffffffffff1673ffffffffffffffffffffffffffffffffffffffff168152602001600482015481526020016005820160009054906101000a900460ff16151515158152505083838151811061042a5761042961160b565b5b6020026020010181905250818061044090611594565b9250505b808061044f90611594565b91505061023f565b508194505050505090565b60606000610470600261110c565b90506000805b8281101561054e573373ffffffffffffffffffffffffffffffffffffffff16600460006001846104a69190611560565b815260200190815260200160002060020160009054906101000a900473ffffffffffffffffffffffffffffffffffffffff1673ffffffffffffffffffffffffffffffffffffffff161480156105275750600460006001836105079190611560565b815260200190815260200160002060050160009054906101000a900460ff165b1561053b57818061053790611594565b9250505b808061054690611594565b915050610476565b5060008167ffffffffffffffff81111561056b5761056a6115dc565b5b6040519080825280602002602001820160405280156105a457816020015b6105916111e5565b8152602001906001900390816105895790505b5090506000805b848110156107fc573373ffffffffffffffffffffffffffffffffffffffff16600460006001846105db9190611560565b815260200190815260200160002060020160009054906101000a900473ffffffffffffffffffffffffffffffffffffffff1673ffffffffffffffffffffffffffffffffffffffff1614801561065c57506004600060018361063c9190611560565b815260200190815260200160002060050160009054906101000a900460ff165b156107e957600460006001836106729190611560565b81526020019081526020016000206040518060c00160405290816000820160009054906101000a900473ffffffffffffffffffffffffffffffffffffffff1673ffffffffffffffffffffffffffffffffffffffff1673ffffffffffffffffffffffffffffffffffffffff168152602001600182015481526020016002820160009054906101000a900473ffffffffffffffffffffffffffffffffffffffff1673ffffffffffffffffffffffffffffffffffffffff1673ffffffffffffffffffffffffffffffffffffffff1681526020016003820160009054906101000a900473ffffffffffffffffffffffffffffffffffffffff1673ffffffffffffffffffffffffffffffffffffffff1673ffffffffffffffffffffffffffffffffffffffff168152602001600482015481526020016005820160009054906101000a900460ff1615151515815250508383815181106107cf576107ce61160b565b5b602002602001018190525081806107e590611594565b9250505b80806107f490611594565b9150506105ab565b508194505050505090565b61080f61111a565b60008111610852576040517f08c379a000000000000000000000000000000000000000000000000000000000815260040161084990611697565b60405180910390fd5b8273ffffffffffffffffffffffffffffffffffffffff166323b872dd3330856040518463ffffffff1660e01b815260040161088f939291906116d5565b600060405180830381600087803b1580156108a957600080fd5b505af11580156108bd573d6000803e3d6000fd5b505050506000600460008481526020019081526020016000209050338160020160006101000a81548173ffffffffffffffffffffffffffffffffffffffff021916908373ffffffffffffffffffffffffffffffffffffffff160217905550308160030160006101000a81548173ffffffffffffffffffffffffffffffffffffffff021916908373ffffffffffffffffffffffffffffffffffffffff16021790555060018160050160006101000a81548160ff02191690831515021790555081816004018190555061098e6001611169565b7fa0c6c0d02d86fdacecbaa5fdf5894bab204e31a778250474108540733a9b8d1984843330866040516109c595949392919061170c565b60405180910390a1506109d66111c5565b505050565b6109e361111a565b60006004600083815260200190815260200160002090508060040154341015610a41576040517f08c379a0000000000000000000000000000000000000000000000000000000008152600401610a38906117d1565b60405180910390fd5b60003390508160020160009054906101000a900473ffffffffffffffffffffffffffffffffffffffff1673ffffffffffffffffffffffffffffffffffffffff166108fc349081150290604051600060405180830381858888f19350505050158015610ab0573d6000803e3d6000fd5b508373ffffffffffffffffffffffffffffffffffffffff166323b872dd308385600101546040518463ffffffff1660e01b8152600401610af293929190611850565b600060405180830381600087803b158015610b0c57600080fd5b505af1158015610b20573d6000803e3d6000fd5b50505050808260030160006101000a81548173ffffffffffffffffffffffffffffffffffffffff021916908373ffffffffffffffffffffffffffffffffffffffff16021790555060008260050160006101000a81548160ff021916908315150217905550610b8e60016111cf565b7f16f1dbd97e6bf646d429ed186cce832f1f7fd9907814293b83181e9970ab7bd28483600101548460020160009054906101000a900473ffffffffffffffffffffffffffffffffffffffff168434604051610bed959493929190611887565b60405180910390a15050610bff6111c5565b5050565b60606000610c11600261110c565b90506000610c1f600161110c565b82610c2a91906118da565b905060008167ffffffffffffffff811115610c4857610c476115dc565b5b604051908082528060200260200182016040528015610c8157816020015b610c6e6111e5565b815260200190600190039081610c665790505b5090506000805b84811015610e605760046000600183610ca19190611560565b815260200190815260200160002060050160009054906101000a900460ff1615610e4d5760046000600183610cd69190611560565b81526020019081526020016000206040518060c00160405290816000820160009054906101000a900473ffffffffffffffffffffffffffffffffffffffff1673ffffffffffffffffffffffffffffffffffffffff1673ffffffffffffffffffffffffffffffffffffffff168152602001600182015481526020016002820160009054906101000a900473ffffffffffffffffffffffffffffffffffffffff1673ffffffffffffffffffffffffffffffffffffffff1673ffffffffffffffffffffffffffffffffffffffff1681526020016003820160009054906101000a900473ffffffffffffffffffffffffffffffffffffffff1673ffffffffffffffffffffffffffffffffffffffff1673ffffffffffffffffffffffffffffffffffffffff168152602001600482015481526020016005820160009054906101000a900460ff161515151581525050838381518110610e3357610e3261160b565b5b60200260200101819052508180610e4990611594565b9250505b8080610e5890611594565b915050610c88565b508194505050505090565b610e7361111a565b60008111610eb6576040517f08c379a0000000000000000000000000000000000000000000000000000000008152600401610ead90611697565b60405180910390fd5b8273ffffffffffffffffffffffffffffffffffffffff166323b872dd3330856040518463ffffffff1660e01b8152600401610ef3939291906116d5565b600060405180830381600087803b158015610f0d57600080fd5b505af1158015610f21573d6000803e3d6000fd5b50505050610f2f60026111cf565b6040518060c001604052808473ffffffffffffffffffffffffffffffffffffffff1681526020018381526020013373ffffffffffffffffffffffffffffffffffffffff1681526020013073ffffffffffffffffffffffffffffffffffffffff168152602001828152602001600115158152506004600084815260200190815260200160002060008201518160000160006101000a81548173ffffffffffffffffffffffffffffffffffffffff021916908373ffffffffffffffffffffffffffffffffffffffff1602179055506020820151816001015560408201518160020160006101000a81548173ffffffffffffffffffffffffffffffffffffffff021916908373ffffffffffffffffffffffffffffffffffffffff16021790555060608201518160030160006101000a81548173ffffffffffffffffffffffffffffffffffffffff021916908373ffffffffffffffffffffffffffffffffffffffff1602179055506080820151816004015560a08201518160050160006101000a81548160ff0219169083151502179055509050507fa0c6c0d02d86fdacecbaa5fdf5894bab204e31a778250474108540733a9b8d1983833330856040516110f795949392919061170c565b60405180910390a16111076111c5565b505050565b600081600001549050919050565b60026000540361115f576040517f08c379a00000000000000000000000000000000000000000000000000000000081526004016111569061195a565b60405180910390fd5b6002600081905550565b600081600001549050600081116111b5576040517f08c379a00000000000000000000000000000000000000000000000000000000081526004016111ac906119c6565b60405180910390fd5b6001810382600001819055505050565b6001600081905550565b6001816000016000828254019250508190555050565b6040518060c00160405280600073ffffffffffffffffffffffffffffffffffffffff16815260200160008152602001600073ffffffffffffffffffffffffffffffffffffffff168152602001600073ffffffffffffffffffffffffffffffffffffffff168152602001600081526020016000151581525090565b600081519050919050565b600082825260208201905092915050565b6000819050602082019050919050565b600073ffffffffffffffffffffffffffffffffffffffff82169050919050565b60006112b68261128b565b9050919050565b6112c6816112ab565b82525050565b6000819050919050565b6112df816112cc565b82525050565b60006112f08261128b565b9050919050565b611300816112e5565b82525050565b60008115159050919050565b61131b81611306565b82525050565b60c08201600082015161133760008501826112bd565b50602082015161134a60208501826112d6565b50604082015161135d60408501826112f7565b50606082015161137060608501826112f7565b50608082015161138360808501826112d6565b5060a082015161139660a0850182611312565b50505050565b60006113a88383611321565b60c08301905092915050565b6000602082019050919050565b60006113cc8261125f565b6113d6818561126a565b93506113e18361127b565b8060005b838110156114125781516113f9888261139c565b9750611404836113b4565b9250506001810190506113e5565b5085935050505092915050565b6000602082019050818103600083015261143981846113c1565b905092915050565b600080fd5b61144f816112ab565b811461145a57600080fd5b50565b60008135905061146c81611446565b92915050565b61147b816112cc565b811461148657600080fd5b50565b60008135905061149881611472565b92915050565b6000806000606084860312156114b7576114b6611441565b5b60006114c58682870161145d565b93505060206114d686828701611489565b92505060406114e786828701611489565b9150509250925092565b6000806040838503121561150857611507611441565b5b60006115168582860161145d565b925050602061152785828601611489565b9150509250929050565b7f4e487b7100000000000000000000000000000000000000000000000000000000600052601160045260246000fd5b600061156b826112cc565b9150611576836112cc565b925082820190508082111561158e5761158d611531565b5b92915050565b600061159f826112cc565b91507fffffffffffffffffffffffffffffffffffffffffffffffffffffffffffffffff82036115d1576115d0611531565b5b600182019050919050565b7f4e487b7100000000000000000000000000000000000000000000000000000000600052604160045260246000fd5b7f4e487b7100000000000000000000000000000000000000000000000000000000600052603260045260246000fd5b600082825260208201905092915050565b7f5072696365206d757374206265206174206c6561737420312077656900000000600082015250565b6000611681601c8361163a565b915061168c8261164b565b602082019050919050565b600060208201905081810360008301526116b081611674565b9050919050565b6116c0816112ab565b82525050565b6116cf816112cc565b82525050565b60006060820190506116ea60008301866116b7565b6116f760208301856116b7565b61170460408301846116c6565b949350505050565b600060a08201905061172160008301886116b7565b61172e60208301876116c6565b61173b60408301866116b7565b61174860608301856116b7565b61175560808301846116c6565b9695505050505050565b7f4e6f7420656e6f75676820657468657220746f20636f7665722061736b696e6760008201527f2070726963650000000000000000000000000000000000000000000000000000602082015250565b60006117bb60268361163a565b91506117c68261175f565b604082019050919050565b600060208201905081810360008301526117ea816117ae565b9050919050565b6000819050919050565b600061181661181161180c8461128b565b6117f1565b61128b565b9050919050565b6000611828826117fb565b9050919050565b600061183a8261181d565b9050919050565b61184a8161182f565b82525050565b600060608201905061186560008301866116b7565b6118726020830185611841565b61187f60408301846116c6565b949350505050565b600060a08201905061189c60008301886116b7565b6118a960208301876116c6565b6118b66040830186611841565b6118c36060830185611841565b6118d060808301846116c6565b9695505050505050565b60006118e5826112cc565b91506118f0836112cc565b925082820390508181111561190857611907611531565b5b92915050565b7f5265656e7472616e637947756172643a207265656e7472616e742063616c6c00600082015250565b6000611944601f8361163a565b915061194f8261190e565b602082019050919050565b6000602082019050818103600083015261197381611937565b9050919050565b7f436f756e7465723a2064656372656d656e74206f766572666c6f770000000000600082015250565b60006119b0601b8361163a565b91506119bb8261197a565b602082019050919050565b600060208201905081810360008301526119df816119a3565b905091905056fea2646970667358221220d540af42d938cbfc4ba5b5a405b7984ab0c562797605e235c00dedd2a1b11d0b64736f6c63430008130033",
  "linkReferences": {},
  "deployedLinkReferences": {}
}